:020000040800F2
:1000000000000220D90F0008550F00085D0F0008FE
:10001000650F00086D0F0008750F00080000000054
:100020000000000000000000000000007D0F00083C
:100030008B0F000800000000990F0008A70F0008B0
:1000400029100008291000082910000829100008AC
:10005000291000082910000829100008291000089C
:10006000291000082910000829100008291000088C
:10007000291000082910000829100008291000087C
:10008000291000082910000829100008291000086C
:10009000291000082910000829100008291000085C
:1000A000291000082910000829100008291000084C
:1000B000291000082910000829100008291000083C
:1000C000291000082910000829100008291000082C
:1000D000291000082910000829100008291000081C
:1000E000291000082910000829100008291000080C
:1000F00029100008291000082910000829100008FC
:1001000029100008291000082910000829100008EB
:1001100029100008291000082910000829100008DB
:1001200029100008291000082910000829100008CB
:1001300029100008291000082910000829100008BB
:1001400029100008291000082910000829100008AB
:10015000291000082910000829100008291000089B
:10016000291000082910000829100008291000088B
:1001700029100008291000082910000800000000BC
:080180002910000829100008F5
:1001880010B5054C237833B9044B13B10448AFF3C9
:1001980000800123237010BD0C0000200000000027
:1001A8004C32000808B5034B1BB103490348AFF3B1
:1001B800008008BD00000000100000204C3200083C
:1001C80010F8012B11F8013B012A28BF9A42F7D0F9
:1001D800D01A7047034613F8012B002AFBD1181ACE
:1001E8000138704753B94AB9002908BF00281CBF15
:1001F8004FF0FF314FF0FF3000F088B9ADF1080C37
:100208006DE904CE00F006F8DDF804E0DDE902232C
:1002180004B070472DE9F047089D8E46044688468D
:10022800002B4AD18A42174662D9B2FA82F64EB1F9
:10023800C6F1200301FA06F820FA03F3B74043EAAF
:100248000808B4404FEA174E1FFA87FCB8FBFEF1C6
:10025800230C0EFB118843EA084301FB0CF29A4277
:1002680009D9FB1801F1FF3080F0EA809A4240F288
:10027800E78002393B449A1AA3B2B2FBFEF00EFBA8
:10028800102243EA024300FB0CFC9C4509D9FB18E9
:1002980000F1FF3280F0D6809C4540F2D3803B4489
:1002A800023840EA0140A3EB0C0300211DB1F340E2
:1002B8000022C5E90032BDE8F0878B4205D90DB1AF
:1002C800C5E9000100210846F5E7B3FA83F10029E2
:1002D80046D1734502D3824200F20581841A6EEB3F
:1002E800030201209046002DE5D0C5E90048E2E769
:1002F800002A00F09080B2FA82F6002E40F0A48026
:100308008A1A030C4FEA174E80B2BCB20121B2FB25
:10031800FEFC0EFB1C2243EA024304FB0CF29A4249
:1003280007D9FB180CF1FF3802D29A4200F2E0809C
:10033800C4469B1AB3FBFEF20EFB123340EA03439A
:1003480002FB04F49C4207D9FB1802F1FF3002D2E9
:100358009C4200F2CA8002461B1B42EA0C40A5E7F9
:10036800C1F120068B4022FA06F71F430EFA01F46A
:1003780020FA06F32EFA06FE4FEA1749234300FA3D
:1003880001F81FFA87FCBEFBF9F01C0C09FB10EE04
:1003980044EA0E4400FB0CFEA64502FA01F209D914
:1003A8003C1900F1FF3A80F09C80A64540F2998004
:1003B80002383C44A4EB0E041FFA83FEB4FBF9F3A5
:1003C80009FB13444EEA044403FB0CFCA44508D97A
:1003D8003C1903F1FF3E80F08280A4457FD9023B9F
:1003E8003C4443EA0040A4EB0C04A0FB02EC644547
:1003F8007346E14662D35FD05DB1B8EB030264EBAC
:10040800090404FA06F622FA01F31E43CC40C5E9B2
:10041800006400214FE7B1FBF2FC010C41EA0E41F8
:1004280080B240EA01423B4638463C46B846BE46A2
:100438002026B1FBF7F1A2EB080241EA0C4166E77E
:10044800014618E710462CE7C6F120022EFA02F3FF
:10045800B740B14020FA02F24FEA174E0A43B3FB05
:10046800FEF8BCB20EFB1833110C41EA034108FB3D
:1004780004F9B04089454FEA104380B23ED9791853
:1004880008F1FF3C01D289451FD8A1EB0901B1FB56
:10049800FEF909FB04F80EFB191192B242EA014277
:1004A800424529D2BA1809F1FF31C4D24245C2D215
:1004B800A9F102013A44BEE7F0459DD2BEEB020322
:1004C8006CEB070C0138E14696E7A7EB09094944AC
:1004D800A8F1020CB1FBFEF909FB04F8DBE773464F
:1004E8007FE7504666E70846FDE63B44023A33E7B5
:1004F800ACF1020C3B441CE749469CE7A1EB09011F
:10050800C446B1FBFEF909FB04F8C4E7704700BF15
:10051800B0B588B000AF00F085FD00F0CDF900F06F
:10052800ABFA00F027FA00F07DFA00F051FA00F07B
:10053800CDFB4FF47A7350227749784802F073FA6A
:1005480075497748FFF73CFE78607B68002B2DD013
:10055800744B1B68DBB20A21184600F011FB6E4889
:1005680000F07CFB6F4B1B6801336E4A13606E4BC7
:100578001B68072B16DC6C4B1B685B016B4A13442A
:100588001F226549184602F01DFE674B1B68674A23
:100598005B0113441F3300221A70634B1B6801333D
:1005A800614A13605C495E4802F044FE5022002113
:1005B800594802F0FFFD5B4B1B68072B00DCB8E7CE
:1005C80000BF0023FB6118E0FB69DBB20421184679
:1005D80000F0D6FA564800F041FBFB69DBB2062171
:1005E800184600F0CDFAFB695B01504A13441846DF
:1005F80000F034FBFB690133FB614B4B1B68FA6964
:100608009A42E1DB0023BB614FF0FF337B6100239B
:100618003B6100F06DFD386005E100F069FD386070
:100628004FF48071434801F015F80346002B1DD1A3
:10063800414B1B68002B19D100F05AFD02463F4B75
:100648001B68D31AC82B11D93B4B01221A6000F042
:100658004FFD0346394A1360BB69002B02DDBB69B5
:10066800013B02E0304B1B68013BBB614FF48071DA
:10067800304800F0EFFF0346012B02D12E4B002239
:100688001A604FF400712B4800F0E4FF0346002B7A
:100698001ED12B4B1B68002B1AD100F029FD0246F6
:1006A800284B1B68D31AC82B12D9254B01221A6074
:1006B80000F01EFD0346234A13601B4B1B68013BD9
:1006C800BA699A4202DABB69013300E00023BB61D0
:1006D8004FF40071174800F0BDFF0346012B02D10B
:1006E800174B00221A60BA697B699A424CD00023E2
:1006F800FB6009E0FB68DBB207220021184600F026
:1007080060FAFB680133FB60074B1B68FA689A4282
:10071800F0DB0023BB6027E00C010020C4000020B0
:10072800600200205C020020780200205C010020AA
:1007380064320008000002407C020020840200208D
:100748008002002088020020BB68DBB2082118461E
:1007580000F016FABB685B014C4A1344184600F0D7
:100768007DFABB680133BB60494B1B68BA689A4283
:10077800EADBBB69DBB20021184600F001FA3E2033
:1007880000F040FABB697B61642000F0BDFC4FF4C7
:100798008061404800F05EFF0346002B35D13E4B98
:1007A8001B68002B31D100F0A3FC02463B4B1B68B1
:1007B800D31AC82B29D9384B01221A6000F098FCAB
:1007C8000346364A136000F05EFA0121002000F06B
:1007D800D7F9BB695B012D4A1344184600F03EFA6D
:1007E800BB695B01294A9C18BB695B01274A134412
:1007F8001846FFF7EFFC03469AB24FF47A73214686
:10080800274802F085F801233B614FF480612148B5
:1008180000F020FF0346012B02D11F4B00221A6073
:10082800322000F071FC3B69002B3FF4F6AE4FF428
:100838007A7350221B491A4802F0F5F81A4A1B4BE2
:1008480014461D460FCD0FC495E8030084E8030045
:1008580014491548FFF7B4FC0346154A1360144BB6
:100868001B68002BE3D14FF47A7350220D490C48D2
:1008780002F0D9F84FF47A7000F046FC4FF47A731E
:10088800502208490B4802F043F8D0E75C010020E9
:1008980078020020000002408C0200209002002014
:1008A800C40000200C01002060020020683200080B
:1008B800740200207C00002080B594B000AF07F1DE
:1008C800200330220021184602F074FC07F10C03C3
:1008D80000221A605A609A60DA601A610023BB60CD
:1008E800224B1B6C214A43F0805313641F4B1B6C33
:1008F80003F08053BB60BB6800237B601C4B1B6804
:100908001B4A43F480431360194B1B6803F480436C
:100918007B607B6802233B620123FB6210233B63FD
:100928000023BB6307F12003184601F049FB034687
:10093800002B01D000F01EF90F23FB6000233B6160
:1009480000237B610023BB610023FB6107F10C03DB
:100958000021184601F0ACFD0346002B01D000F041
:1009680009F900BF5037BD4680BD00BF00380240BE
:100978000070004080B500AF124B134A1A60114B4B
:10098800124A5A600F4B00229A600E4B0022DA601E
:100998000C4B4FF480421A610A4B00225A61094BF2
:1009A80000229A61074B0022DA61064B00221A6284
:1009B800044800F067FE0346002B01D000F0DAF887
:1009C80000BF80BD2800002000580040A08601001C
:1009D80080B500AF114B124A1A60104B4FF41652F3
:1009E8005A600E4B00229A600C4B0022DA600B4BC7
:1009F80000221A61094B0C225A61084B00229A61A5
:100A0800064B0022DA61054801F032FF0346002B4D
:100A180001D000F0AFF800BF80BD00BF7C0000200F
:100A28000010014080B500AF114B124A1A60104BFC
:100A38004FF416525A600E4B00229A600C4B00225B
:100A4800DA600B4B00221A61094B0C225A61084BE1
:100A580000229A61064B0022DA61054801F008FF7E
:100A68000346002B01D000F085F800BF80BD00BF11
:100A7800C40000200044004080B588B000AF07F1F2
:100A88000C0300221A605A609A60DA601A61002327
:100A9800BB601C4B1B6B1B4A43F001031363194BD0
:100AA8001B6B03F00103BB60BB6800237B60154B25
:100AB8001B6B144A43F002031363124B1B6B03F0C6
:100AC80002037B607B6800233B600E4B1B6B0D4A67
:100AD80043F0080313630B4B1B6B03F008033B60E5
:100AE8003B684FF4E053FB6000233B6100237B61CC
:100AF80007F10C031946044800F010FC00BF20372A
:100B0800BD4680BD00380240000C024080B586B06A
:100B180002AF0346FB7100233B73FB797B7307F13C
:100B28000C024FF0FF33009302237821034800F0B2
:100B3800EDFE00BF1037BD4680BD00BF2800002075
:100B480080B586B002AF0346FB7140233B73FB7947
:100B58007B7307F10C024FF0FF33009302237821D7
:100B6800034800F0D3FE00BF1037BD4680BD00BF6C
:100B78002800002080B400AF72B600BF00BFFDE7B8
:100B880080B582B000AF03460A46FB711346BB71BD
:100B9800FB79503BDBB21846FFF7B8FFBB7903F08F
:100BA8000F03DBB21846FFF7B1FFBB791B09DBB2B5
:100BB8001033DBB21846FFF7A9FF00BF0837BD4660
:100BC80080BD80B584B000AF0346FB710B46BB7196
:100BD80013467B71BA79FB7911461846FFF7D0FFA7
:100BE8000023FB7305E00020FFF7AAFFFB7B01331E
:100BF800FB73FA7B7B799A42F5D300BF00BF1037AD
:100C0800BD4680BD80B584B000AF0346FB71FB795B
:100C18001F2B1CD997F90730002B18DB0023FB7317
:100C280011E0FB79A3F12002F97B0B4813465B0026
:100C380013445B0003440B441B781846FFF780FFFE
:100C4800FB7B0133FB73FB7B052BEAD900E000BF7C
:100C58001037BD4680BD00BF8032000880B582B025
:100C680000AF786006E07B685A1C7A601B781846EB
:100C7800FFF7C8FF7B681B78002BF4D100BF00BFCB
:100C88000837BD4680BD80B582B000AF0023FB7138
:100C980014E0FB7900211846FFF772FF0023BB71AF
:100CA80005E00020FFF74CFFBB790133BB7197F9D2
:100CB8000630002BF5DAFB790133FB71FB79072B42
:100CC800E7D900BF00BF0837BD4680BD80B500AF7B
:100CD800AE20FFF71BFFD520FFF718FF8020FFF796
:100CE80015FFA820FFF712FF3F20FFF70FFFD320C3
:100CF800FFF70CFF0020FFF709FF4020FFF706FF72
:100D08008D20FFF703FF1420FFF700FF2020FFF7D7
:100D1800FDFE0020FFF7FAFEA120FFF7F7FEC8202E
:100D2800FFF7F4FEDA20FFF7F1FE1220FFF7EEFEE0
:100D38008120FFF7EBFECF20FFF7E8FED920FFF771
:100D4800E5FEF120FFF7E2FEDB20FFF7DFFE4020A3
:100D5800FFF7DCFEA420FFF7D9FEA620FFF7D6FE9A
:100D6800AF20FFF7D3FEFFF78EFF00BF80BD000066
:100D780080B483B000AF00237B60104B5B6C0F4ADC
:100D880043F4804353640D4B5B6C03F480437B60F6
:100D98007B6800233B60094B1B6C084A43F0805377
:100DA8001364064B1B6C03F080533B603B6800BF29
:100DB8000C37BD465DF8047B704700BF0038024021
:100DC80080B58AB000AF786007F1140300221A607A
:100DD8005A609A60DA601A617B681B68194A934204
:100DE8002CD100233B61184B1B6B174A43F00203BD
:100DF8001363154B1B6B03F002033B613B694FF414
:100E080040637B611223BB610023FB6103233B62C8
:100E180004237B6207F1140319460C4800F07EFA9C
:100E28000023FB60084B1B6C074A43F480031364E0
:100E3800054B1B6C03F48003FB60FB6800BF28377D
:100E4800BD4680BD00580040003802400004024002
:100E580080B58CB000AF786007F11C0300221A60DF
:100E68005A609A60DA601A617B681B68324A93425A
:100E78002CD10023BB61314B5B6C304A43F010032B
:100E880053642E4B5B6C03F01003BB61BB690023FA
:100E98007B612A4B1B6B294A43F002031363274BE0
:100EA8001B6B03F002037B617B69C023FB61022398
:100EB8003B6200237B620323BB620723FB6207F1CB
:100EC8001C0319461E4800F029FA30E07B681B68AD
:100ED8001C4A93422BD100233B61184B1B6C174AC9
:100EE80043F400331364154B1B6C03F400333B616C
:100EF8003B690023FB60114B1B6B104A43F0010355
:100F080013630E4B1B6B03F00103FB60FB680C23A0
:100F1800FB6102233B6200237B620323BB6207233E
:100F2800FB6207F11C031946074800F0F7F900BFF8
:100F38003037BD4680BD00BF001001400038024078
:100F480000040240004400400000024080B400AFAA
:100F580000BFFDE780B400AF00BFFDE780B400AF7D
:100F680000BFFDE780B400AF00BFFDE780B400AF6D
:100F780000BFFDE780B400AF00BFBD465DF8047B4D
:100F8800704780B400AF00BFBD465DF8047B704772
:100F980080B400AF00BFBD465DF8047B704780B5E4
:100FA80000AF00F091F800BF80BD000080B400AF32
:100FB800064BD3F88830054A43F47003C2F88830EA
:100FC80000BFBD465DF8047B704700BF00ED00E040
:100FD800DFF834D0FFF7EAFF0C480D490D4A00232B
:100FE80002E0D458C4500433C4188C42F9D30A4AD6
:100FF8000A4C002301E013600432A242FBD302F042
:10100800F5F8FFF785FA704700000220000000207D
:101018000C000020E43400080C0000209802002096
:10102800FEE7000080B500AF0E4B1B680D4A43F485
:10103800007313600B4B1B680A4A43F48063136008
:10104800084B1B68074A43F480731360032000F0C1
:1010580031F90F2000F008F8FFF78AFE0023184640
:1010680080BD00BF003C024080B582B000AF786010
:10107800124B1A68124B1B7819464FF47A73B3FB5C
:10108800F1F3B2FBF3F3184600F03BF90346002BEB
:1010980001D001230EE07B680F2B0AD80022796863
:1010A8004FF0FF3000F011F9064A7B681360002307
:1010B80000E0012318460837BD4680BD0000002027
:1010C800080000200400002080B400AF064B1B7805
:1010D8001A46064B1B681344044A136000BFBD46FA
:1010E8005DF8047B704700BF0800002094020020D0
:1010F80080B400AF034B1B681846BD465DF8047BFF
:10110800704700BF9402002080B584B000AF7860BB
:10111800FFF7EEFFB8607B68FB60FB68B3F1FF3F49
:1011280005D00A4B1B781A46FB681344FB6000BFC6
:10113800FFF7DEFF0246BB68D31AFA689A42F7D86F
:1011480000BF00BF1037BD4680BD00BF08000020AB
:1011580080B485B000AF78607B6803F00703FB605C
:101168000C4BDB68BB60BA684FF6FF031340BB60EB
:10117800FB681A02BB68134343F0BF6343F40033B0
:10118800BB60044ABB68D36000BF1437BD465DF836
:10119800047B704700ED00E080B400AF044BDB68CF
:1011A8001B0A03F007031846BD465DF8047B704729
:1011B80000ED00E080B483B000AF03463960FB71F6
:1011C80097F90730002B0ADB3B68DAB20C4997F92C
:1011D80007301201D2B20B4483F800230AE03B68BF
:1011E800DAB20849FB7903F00F03043B1201D2B2CB
:1011F8000B441A7600BF0C37BD465DF8047B704778
:1012080000E100E000ED00E080B489B000AFF860D4
:10121800B9607A60FB6803F00703FB61FB69C3F1FF
:101228000703042B28BF0423BB61FB690433062B87
:1012380002D9FB69033B00E000237B614FF0FF32DA
:10124800BB6902FA03F3DA43BB681A407B699A4028
:101258004FF0FF317B6901FA03F3D9437B680B40F8
:10126800134318462437BD465DF8047B70470000D9
:1012780080B582B000AF78607B68013BB3F1807FB6
:1012880001D301230FE00A4A7B68013B53600F2119
:101298004FF0FF30FFF78EFF054B00229A60044B9A
:1012A80007221A60002318460837BD4680BD00BFD4
:1012B80010E000E080B582B000AF78607868FFF792
:1012C80047FF00BF0837BD4680BD80B586B000AF78
:1012D8000346B9607A60FB7300237B61FFF75CFF0C
:1012E80078617A68B9687869FFF78EFF024697F9DE
:1012F8000F3011461846FFF75DFF00BF1837BD468F
:1013080080BD80B582B000AF78607868FFF7B0FF25
:10131800034618460837BD4680BD000080B489B032
:1013280000AF7860396000237B6100233B610023B4
:10133800BB610023FB616BE10122FB6902FA03F345
:101348007B613B681B687A6913403B613A697B693A
:101358009A4240F05A813B685B6803F00303012B13
:1013680005D03B685B6803F00303022B30D17B6830
:101378009B68BB61FB695B00032202FA03F3DB4352
:10138800BA691340BB613B68DA68FB695B0002FA23
:1013980003F3BA691343BB617B68BA699A607B68D7
:1013A8005B68BB610122FB6902FA03F3DB43BA699C
:1013B8001340BB613B685B681B0903F00102FB69D2
:1013C80002FA03F3BA691343BB617B68BA695A60CE
:1013D8003B685B6803F00303032B17D07B68DB686B
:1013E800BB61FB695B00032202FA03F3DB43BA69C2
:1013F8001340BB613B689A68FB695B0002FA03F320
:10140800BA691343BB617B68BA69DA603B685B6899
:1014180003F00303022B23D1FB69DA087B68083247
:1014280053F82230BB61FB6903F007039B000F22CE
:1014380002FA03F3DB43BA691340BB613B681A69DC
:10144800FB6903F007039B0002FA03F3BA6913432D
:10145800BB61FB69DA087B680832B96943F8221076
:101468007B681B68BB61FB695B00032202FA03F31C
:10147800DB43BA691340BB613B685B6803F0030256
:10148800FB695B0002FA03F3BA691343BB617B682B
:10149800BA691A603B685B6803F44033002B00F0BC
:1014A800B4800023FB60604B5B6C5F4A43F480436D
:1014B80053645D4B5B6C03F48043FB60FB685B4AE1
:1014C800FB699B08023352F82330BB61FB6903F0C8
:1014D80003039B000F2202FA03F3DB43BA691340AC
:1014E800BB617B68524A93422BD07B68514A934236
:1014F80025D07B68504A93421FD07B684F4A93425D
:1015080019D07B684E4A934213D07B684D4A934268
:101518000DD07B684C4A934207D07B684B4A934274
:1015280001D107230EE008230CE006230AE0052377
:1015380008E0042306E0032304E0022302E0012379
:1015480000E00023FA6902F0030292009340BA69AE
:101558001343BB613549FB699B080233BA6941F8FB
:1015680023203B4B9B68BB613B69DB43BA69134053
:10157800BB613B685B6803F48013002B03D0BA6936
:101588003B691343BB61324ABB699360304BDB68EC
:10159800BB613B69DB43BA691340BB613B685B686D
:1015A80003F40013002B03D0BA693B691343BB61F2
:1015B800274ABB69D360264B5B68BB613B69DB4349
:1015C800BA691340BB613B685B6803F40033002BC6
:1015D80003D0BA693B691343BB611D4ABB695360B9
:1015E8001B4B1B68BB613B69DB43BA691340BB619A
:1015F8003B685B6803F48033002B03D0BA693B690E
:101608001343BB61124ABB691360FB690133FB6179
:10161800FB690F2B7FF690AE00BF00BF2437BD4695
:101628005DF8047B704700BF003802400038014075
:10163800000002400004024000080240000C024082
:10164800001002400014024000180240001C024032
:10165800003C014080B485B000AF78600B467B80C9
:101668007B681A697B881340002B02D00123FB7327
:1016780001E00023FB73FB7B18461437BD465DF879
:10168800047B704780B584B000AF78607B68002B1E
:1016980001D101232BE17B6893F83D30DBB2002BAD
:1016A80006D17B68002283F83C207868FFF788FB26
:1016B8007B68242283F83D207B681B681A687B6856
:1016C8001B6822F001021A607B681B681A687B6835
:1016D8001B6842F400421A607B681B681A687B68C2
:1016E8001B6822F400421A6001F09AF8F8607B68DF
:1016F8005B68814A934207D8FB68804A934294BF4B
:1017080001230023DBB206E0FB687D4A934294BFC5
:1017180001230023DBB2002B01D00123E7E0FB68A3
:10172800784AA2FB03239B0CBB607B681B685B6841
:1017380023F03F017B681B68BA680A435A607B68DC
:101748001B681B6A23F03F017B685B686A4A934207
:1017580002D8BB68013309E0BB684FF4967202FBFC
:1017680003F3694AA2FB03239B0901337A681268D1
:101778000B4313627B681B68DB6923F44F4222F03A
:10178800FF027B685B685C498B4219D8FB68591E6D
:101798007B685B685B00B1FBF3F3591C40F6FC7394
:1017A8000B40002B0AD0FB68591E7B685B685B0006
:1017B800B1FBF3F30133C3F30B0351E004234FE010
:1017C8007B689B68002B11D1FB68581E7B685968A1
:1017D8000B465B000B44B0FBF3F30133C3F30B037D
:1017E800002B0CBF01230023DBB212E0FB68581E5C
:1017F8007B6859680B469B000B4499000B44B0FB6F
:10180800F3F30133C3F30B03002B0CBF01230023B5
:10181800DBB2002B01D0012322E07B689B68002B00
:101828000ED1FB68581E7B6859680B465B000B4459
:10183800B0FBF3F30133C3F30B0343F400430FE0AE
:10184800FB68581E7B6859680B469B000B4499003F
:101858000B44B0FBF3F30133C3F30B0343F44043EE
:10186800796809681343CB617B681B681B6823F0A0
:10187800C0017B68DA697B681B6A1A437B681B684E
:101888000A431A607B681B689B6823F4034323F0B0
:10189800FF037A6811697A68D26811437A68126816
:1018A8000B4393607B681B68DB6823F0FF017B6850
:1018B8005A697B689B691A437B681B680A43DA602C
:1018C8007B681B681A687B681B6842F001021A6013
:1018D8007B6800221A647B68202283F83D207B689D
:1018E80000221A637B68002283F83E2000231846F2
:1018F8001037BD4680BD00BFA08601007F841E0052
:10190800FF083D0083DE1B43D34D621080B588B0CD
:1019180002AFF8607A601A460B467B8113463B811A
:10192800FFF7E6FB7861FB6893F83D30DBB2202BCC
:1019380040F0E0807B690093192301227049F86820
:1019480000F064F90346002B01D00223D3E0FB68C2
:1019580093F83C30012B01D10223CCE0FB68012233
:1019680083F83C20FB681B681B6803F00103012B0C
:1019780007D0FB681B681A68FB681B6842F0010205
:101988001A60FB681B681A68FB681B6822F400620F
:101998001A60FB68212283F83D20FB68102283F837
:1019A8003E20FB6800221A64FB687A685A62FB686A
:1019B8003A895A85FB685B8D9AB2FB681A85FB6881
:1019C800504ADA6279897B693A6AF86800F09CF8CB
:1019D8000346002B01D001238DE000233B61FB6807
:1019E8001B685B693B61FB681B689B693B613B69E2
:1019F80066E07A69396AF86800F022FA0346002B33
:101A08000DD0FB681B6C042B07D1FB681B681A6898
:101A1800FB681B6842F400721A6001236BE0FB68E4
:101A28005B6A1A78FB681B681A61FB685B6A5A1C58
:101A3800FB685A62FB685B8D9BB2013B9AB2FB68FC
:101A48005A85FB681B8D013B9AB2FB681A85FB68B7
:101A58001B685B6903F00403042B1BD1FB681B8D17
:101A6800002B17D0FB685B6A1A78FB681B681A6141
:101A7800FB685B6A5A1CFB685A62FB685B8D9BB209
:101A8800013B9AB2FB685A85FB681B8D013B9AB2F1
:101A9800FB681A857A69396AF86800F019FA03460A
:101AA800002B0DD0FB681B6C042B07D1FB681B684F
:101AB8001A68FB681B6842F400721A6001231AE076
:101AC800FB681B8D002B94D1FB681B681A68FB68A8
:101AD8001B6842F400721A60FB68202283F83D20DC
:101AE800FB68002283F83E20FB68002283F83C2034
:101AF800002300E0022318461837BD4680BD00BF0A
:101B0800020010000000FFFF80B588B002AFF86047
:101B18007A603B600B467B81FB68DB6A7B617B6993
:101B2800082B06D07B69012B03D07B6913F5803F16
:101B380008D1FB681B681A68FB681B6842F480724E
:101B48001A600BE0FB681B6B122B07D1FB681B6844
:101B58001A68FB681B6842F480721A603B6800933D
:101B68007B6800224FF00111F86800F04FF8034637
:101B7800002B0DD0FB681B681B6803F48073B3F55A
:101B8800807F03D1FB684FF400721A64032335E0A9
:101B9800FB681B69B3F5804F08D17B89DBB21A4615
:101BA800FB681B6802F0FE021A611BE07B89DB11EF
:101BB800DBB203F00603DBB263F00F03DAB2FB68B3
:101BC8001B681A613B687A680E49F86800F098F853
:101BD8000346002B01D0012310E07B89DAB2FB68B1
:101BE8001B681A613B687A680749F86800F088F84A
:101BF8000346002B01D0012300E0002318461837C4
:101C0800BD4680BD080001000200010080B584B017
:101C180000AFF860B9603B601346FB7148E03B6871
:101C2800B3F1FF3F44D0FFF763FA0246BB69D31A0A
:101C38003A689A4202D33B68002B39D1BB681B0C27
:101C4800DBB2012B0DD1FB681B685B69DA43BB680B
:101C580013409BB2002B0CBF01230023DBB21A46B2
:101C68000CE0FB681B689B69DA43BB6813409BB2B6
:101C7800002B0CBF01230023DBB21A46FB799A42E2
:101C880016D1FB6800221A63FB68202283F83D20E6
:101C9800FB68002283F83E20FB681B6C43F020029F
:101CA800FB681A64FB68002283F83C20012323E0C8
:101CB800BB681B0CDBB2012B0DD1FB681B685B6991
:101CC800DA43BB6813409BB2002B0CBF01230023EF
:101CD800DBB21A460CE0FB681B689B69DA43BB68F9
:101CE80013409BB2002B0CBF01230023DBB21A4622
:101CF800FB799A4293D0002318461037BD4680BD21
:101D080080B584B000AFF860B9607A603B6071E07C
:101D1800FB681B685B6903F48063B3F5806F23D1AC
:101D2800FB681B681A68FB681B6842F400721A603B
:101D3800FB681B686FF480625A61FB6800221A63B3
:101D4800FB68202283F83D20FB68002283F83E20B0
:101D5800FB681B6C43F00402FB681A64FB680022F2
:101D680083F83C20012367E07B68B3F1FF3F41D053
:101D7800FFF7BEF902463B68D31A7A689A4202D343
:101D88007B68002B36D1BB681B0CDBB2012B0CD156
:101D9800FB681B685B69DA43BB6813409BB2002B86
:101DA80014BF01230023DBB20BE0FB681B689B69AF
:101DB800DA43BB6813409BB2002B14BF01230023F6
:101DC800DBB2002B16D0FB6800221A63FB682022C6
:101DD80083F83D20FB68002283F83E20FB681B6CDB
:101DE80043F02002FB681A64FB68002283F83C2059
:101DF800012321E0BB681B0CDBB2012B0CD1FB6873
:101E08001B685B69DA43BB6813409BB2002B14BFA5
:101E180001230023DBB20BE0FB681B689B69DA43F4
:101E2800BB6813409BB2002B14BF01230023DBB215
:101E3800002B7FF46DAF002318461037BD4680BDD8
:101E480080B584B000AFF860B9607A6034E0F868B3
:101E580000F086F80346002B01D0012334E0BB686C
:101E6800B3F1FF3F28D0FFF743F902467B68D31A46
:101E7800BA689A4202D3BB68002B1DD1FB681B6865
:101E88005B6903F08003802B16D0FB6800221A637D
:101E9800FB68202283F83D20FB68002283F83E205F
:101EA800FB681B6C43F02002FB681A64FB68002285
:101EB80083F83C20012307E0FB681B685B6903F09B
:101EC8008003802BC3D1002318461037BD4680BD40
:101ED80080B584B000AFF860B9607A6034E0F86823
:101EE80000F03EF80346002B01D0012334E0BB6824
:101EF800B3F1FF3F28D0FFF7FBF802467B68D31AFF
:101F0800BA689A4202D3BB68002B1DD1FB681B68D4
:101F18005B6903F00403042B16D0FB6800221A63E4
:101F2800FB68202283F83D20FB68002283F83E20CE
:101F3800FB681B6C43F02002FB681A64FB680022F4
:101F480083F83C20012307E0FB681B685B6903F00A
:101F58000403042BC3D1002318461037BD4680BDA7
:101F680080B483B000AF78607B681B685B6903F45A
:101F78008063B3F5806F1BD17B681B686FF4806248
:101F88005A617B6800221A637B68202283F83D200F
:101F98007B68002283F83E207B681B6C43F00402B8
:101FA8007B681A647B68002283F83C20012300E0E8
:101FB800002318460C37BD465DF8047B70470000C7
:101FC80080B586B000AF78607B68002B01D1012313
:101FD80067E27B681B6803F00103002B75D0884B10
:101FE8009B6803F00C03042B0CD0854B9B6803F013
:101FF8000C03082B12D1824B5B6803F48003B3F502
:10200800800F0BD17E4B1B6803F40033002B5BD091
:102018007B685B68002B57D1012342E27B685B68D1
:10202800B3F5803F06D1764B1B68754A43F480337D
:1020380013601DE07B685B68B3F5A02F0CD1704B73
:102048001B686F4A43F4802313606D4B1B686C4A0E
:1020580043F4803313600BE0694B1B68684A23F430
:1020680080331360664B1B68654A23F48023136032
:102078007B685B68002B13D0FFF73AF8386108E0FB
:10208800FFF736F802463B69D31A642B01D90323BC
:1020980007E25B4B1B6803F40033002BF0D014E01D
:1020A800FFF726F8386108E0FFF722F802463B6997
:1020B800D31A642B01D90323F3E1514B1B6803F4B2
:1020C8000033002BF0D100E000BF7B681B6803F0F1
:1020D8000203002B63D04A4B9B6803F00C03002BD0
:1020E8000BD0474B9B6803F00C03082B1CD1444BC7
:1020F8005B6803F48003002B16D1414B1B6803F087
:102108000203002B05D07B68DB68012B01D001237B
:10211800C7E13B4B1B6823F0F8027B681B69DB00B7
:10212800374913430B603AE07B68DB68002B20D00B
:10213800344B01221A60FEF7DBFF386108E0FEF736
:10214800D7FF02463B69D31A022B01D90323A8E122
:102158002B4B1B6803F00203002BF0D0284B1B68A5
:1021680023F0F8027B681B69DB00254913430B60E9
:1021780015E0244B00221A60FEF7BAFF386108E028
:10218800FEF7B6FF02463B69D31A022B01D9032397
:1021980087E11B4B1B6803F00203002BF0D17B681F
:1021A8001B6803F00803002B36D07B685B69002BA3
:1021B80016D0154B01221A60FEF79AFF386108E025
:1021C800FEF796FF02463B69D31A022B01D9032377
:1021D80067E10B4B5B6F03F00203002BF0D01BE0B1
:1021E800094B00221A60FEF783FF38610EE0FEF704
:1021F8007FFF02463B69D31A022B07D9032350E11C
:102208000038024000004742800E4742884B5B6F0F
:1022180003F00203002BEAD17B681B6803F0040378
:10222800002B00F097800023FB75814B1B6C03F09B
:102238008053002B0FD10023BB607D4B1B6C7C4A65
:1022480043F0805313647A4B1B6C03F08053BB60DC
:10225800BB680123FB75774B1B6803F48073002B65
:1022680018D1744B1B68734A43F480731360FEF7EC
:102278003FFF386108E0FEF73BFF02463B69D31A8F
:10228800022B01D903230CE16A4B1B6803F480730A
:10229800002BF0D07B689B68012B06D1644B1B6F29
:1022A800634A43F0010313671CE07B689B68052BB6
:1022B8000CD15F4B1B6F5E4A43F0040313675C4B02
:1022C8001B6F5B4A43F0010313670BE0584B1B6F0E
:1022D800574A23F001031367554B1B6F544A23F0E9
:1022E800040313677B689B68002B15D0FEF700FF7B
:1022F80038610AE0FEF7FCFE02463B69D31A41F258
:102308008832934201D90323CBE0494B1B6F03F07A
:102318000203002BEED014E0FEF7EAFE38610AE073
:10232800FEF7E6FE02463B69D31A41F28832934231
:1023380001D90323B5E03E4B1B6F03F00203002BCA
:10234800EED1FB7D012B05D1394B1B6C384A23F0AC
:10235800805313647B689B69002B00F0A180344B89
:102368009B6803F00C03082B5CD07B689B69022BED
:1023780041D1314B00221A60FEF7BAFE386108E0FD
:10238800FEF7B6FE02463B69D31A022B01D9032396
:1023980087E0274B1B6803F00073002BF0D17B68A4
:1023A800DA697B681B6A1A437B685B6A9B011A437C
:1023B8007B689B6A5B08013B1B041A437B68DB6AEA
:1023C8001B061B4913434B601B4B01221A60FEF787
:1023D8008FFE386108E0FEF78BFE02463B69D31A90
:1023E800022B01D903235CE0114B1B6803F0007337
:1023F800002BF0D054E0104B00221A60FEF778FE54
:10240800386108E0FEF774FE02463B69D31A022BD6
:1024180001D9032345E0064B1B6803F00073002B2A
:10242800F0D13DE07B689B69012B07D1012338E09F
:102438000038024000700040600047421B4B5B6858
:10244800FB607B689B69012B28D0FB6803F4800242
:102458007B68DB699A4221D1FB6803F03F027B6805
:102468001B6A9A421AD1FA6847F6C07313407A6811
:10247800526A9201934211D1FB6803F440327B689F
:102488009B6A5B08013B1B049A4207D1FB6803F077
:1024980070627B68DB6A1B069A4201D0012300E068
:1024A800002318461837BD4680BD00BF00380240DB
:1024B80080B584B000AF786039607B68002B01D1AB
:1024C8000123CCE0684B1B6803F007033A689A4283
:1024D8000CD9654B3A68D2B21A70634B1B6803F08B
:1024E80007033A689A4201D00123B8E07B681B6869
:1024F80003F00203002B20D07B681B6803F0040361
:10250800002B05D0594B9B68584A43F4E05393601D
:102518007B681B6803F00803002B05D0534B9B68AE
:10252800524A43F460439360504B9B6823F0F00297
:102538007B689B684D4913438B607B681B6803F07D
:102548000103002B44D07B685B68012B07D1474B04
:102558001B6803F40033002B19D101237FE07B684B
:102568005B68022B03D07B685B68032B07D13F4B6A
:102578001B6803F00073002B09D101236FE03B4B6C
:102588001B6803F00203002B01D1012367E0374BDE
:102598009B6823F003027B685B68344913438B60B4
:1025A800FEF7A6FDF8600AE0FEF7A2FD0246FB680A
:1025B800D31A41F28832934201D903234FE02B4BBF
:1025C8009B6803F00C027B685B689B009A42EBD126
:1025D800254B1B6803F007033A689A420CD2224B3A
:1025E8003A68D2B21A70204B1B6803F007033A68A6
:1025F8009A4201D0012332E07B681B6803F0040390
:10260800002B08D0194B9B6823F4E0527B68DB68E9
:10261800164913438B607B681B6803F00803002B83
:1026280009D0124B9B6823F460427B681B69DB006E
:102638000E4913438B6000F021F802460B4B9B6850
:102648001B0903F00F030A49CB5C22FA03F3094A7A
:102658001360094B1B681846FEF706FD0023184651
:102668001037BD4680BD00BF003C02400038024024
:10267800BC34000800000020040000202DE9B04F01
:1026880090B000AF00237B630023FB6300233B6310
:102698000023BB63594B9B6803F00C03082B0DD038
:1026A800082B00F2A180002B02D0042B03D09BE062
:1026B800534BBB639BE0534BBB6398E04F4B5B684A
:1026C80003F03F037B634D4B5B6803F48003002BEF
:1026D80028D04A4B5B689B0900223B627A623B6ABE
:1026E800C3F308000021474B03FB01F2002300FB62
:1026F80003F31344434AA0FB0212FA620A46BA6281
:10270800FA6A1344FB627B6B0022BB61FA61D7E96A
:102718000623D7E90A01FDF765FD02460B46134675
:10272800FB6353E0354B5B689B0900223B617A6190
:102738003B69C3F3080A4FF0000B52465B464FF063
:1027480000004FF00001590141EAD26150010246F0
:102758000B46B2EB0A0863EB0B094FF000024FF08F
:1027680000034FEA891343EA98634FEA8812B2EBF1
:10277800080463EB09054FF000024FF00003EB007B
:1027880043EA5473E20014461D4614EB0A033B6007
:1027980045EB0B037B604FF000024FF00003D7E9D5
:1027A800004529468B02214643EA915321468A0275
:1027B800104619467B6B0022BB60FA60D7E90223FA
:1027C800FDF710FD02460B461346FB630B4B5B6897
:1027D8001B0C03F0030301335B003B63FA6B3B6B99
:1027E800B2FBF3F3BB6302E0054BBB6300BFBB6BFB
:1027F80018464037BD46BDE8B08F00BF00380240DC
:102808000024F40040787D0180B400AF034B1B68BE
:102818001846BD465DF8047B704700BF00000020E5
:1028280080B500AFFFF7F0FF0246054B9B689B0A97
:1028380003F007030349CB5C22FA03F3184680BD73
:1028480000380240CC34000880B500AFFFF7DCFF49
:102858000246054B9B685B0B03F007030349CB5CFF
:1028680022FA03F3184680BD00380240CC34000831
:1028780080B582B000AF78607B68002B01D101235E
:1028880042E07B6893F84130DBB2002B06D17B68CD
:10289800002283F840207868FEF7DAFA7B68242261
:1028A80083F841207B681B68DA687B681B6822F420
:1028B8000052DA60786800F009FA7B681B681A69C8
:1028C8007B681B6822F490421A617B681B685A690E
:1028D8007B681B6822F02A025A617B681B68DA68E9
:1028E8007B681B6842F40052DA607B6800225A64F5
:1028F8007B68202283F841207B68202283F84220CD
:102908007B6800225A63002318460837BD4680BDFD
:1029180080B58AB002AFF860B9603B601346FB80AF
:1029280000237B61FB6893F84130DBB2202B75D123
:10293800BB68002B02D0FB88002B01D101236EE07D
:10294800FB6800225A64FB68212283F84120FEF7C5
:10295800CFFB7861FB68FA889A84FB68FA88DA8486
:10296800FB689B68B3F5805F08D1FB681B69002B87
:1029780004D10023FB61BB68BB6103E0BB68FB615A
:102988000023BB612EE03B6800937B690022802115
:10299800F86800F0DFF80346002B05D0FB6820221A
:1029A80083F8412003233AE0FB69002B0BD1BB6974
:1029B8001B881A46FB681B68C2F308025A60BB6989
:1029C8000233BB6107E0FB691A78FB681B685A6031
:1029D800FB690133FB61FB68DB8C9BB2013B9AB25C
:1029E800FB68DA84FB68DB8C9BB2002BCBD13B689D
:1029F80000937B6900224021F86800F0ABF8034699
:102A0800002B05D0FB68202283F84120032306E031
:102A1800FB68202283F84120002300E002231846A7
:102A28002037BD4680BD80B58AB002AFF860B96076
:102A38003B601346FB8000237B61FB6893F84230C0
:102A4800DBB2202B40F08180BB68002B02D0FB88D2
:102A5800002B01D1012379E0FB6800225A64FB684E
:102A6800222283F84220FB6800221A63FEF740FB0B
:102A78007861FB68FA889A85FB68FA88DA85FB68CA
:102A88009B68B3F5805F08D1FB681B69002B04D1F4
:102A98000023FB61BB68BB6103E0BB68FB610023EB
:102AA800BB6147E03B6800937B6900222021F868FE
:102AB80000F050F80346002B05D0FB68202283F86D
:102AC8004220032342E0FB69002B0CD1FB681B6802
:102AD8005B689BB2C3F308039AB2BB691A80BB69EF
:102AE8000233BB611FE0FB689B68B3F5805F07D0CA
:102AF800FB689B68002B0AD1FB681B69002B06D179
:102B0800FB681B685B68DAB2FB691A7008E0FB684F
:102B18001B685B68DBB203F07F03DAB2FB691A70EB
:102B2800FB690133FB61FB68DB8D9BB2013B9AB209
:102B3800FB68DA85FB68DB8D9BB2002BB2D1FB68A2
:102B4800202283F84220002300E002231846203781
:102B5800BD4680BD80B586B000AFF860B9603B6007
:102B68001346FB713BE03B6AB3F1FF3F37D0FEF7FA
:102B7800BFFA02463B68D31A3A6A9A4202D33B6AC2
:102B8800002B01D103233AE0FB681B68DB6803F0E4
:102B98000403002B23D0BB68802B20D0BB68402BBC
:102BA8001DD0FB681B681B6803F00803082B16D1AF
:102BB80000237B61FB681B681B687B61FB681B68E3
:102BC8005B687B617B69F86800F01DF8FB68082288
:102BD8005A64FB68002283F8402001230FE0FB6859
:102BE8001B681A68BB681340BA689A420CBF012375
:102BF8000023DBB21A46FB799A42B4D00023184668
:102C08001837BD4680BD80B495B000AF78607B684A
:102C18001B680C337B637B6B53E8003F3B633B6B68
:102C280023F49073FB647B681B680C33FA6C3A647A
:102C3800FB63F96B3A6C41E80023BB63BB6B002B69
:102C4800E5D17B681B6814333B623B6A53E8003F5D
:102C5800FB61FB6923F00103BB647B681B681433C9
:102C6800BA6CFA62BB62B96AFA6A41E800237B620D
:102C78007B6A002BE5D17B681B6B012B19D17B6824
:102C88001B680C33FB60FB6853E8003FBB60BB6804
:102C980023F010037B647B681B680C337A6CBA6181
:102CA8007B617969BA6941E800233B613B69002B84
:102CB800E5D17B68202283F842207B6800221A63D2
:102CC80000BF5437BD465DF8047B70472DE9B04F0F
:102CD800C0B000AFC7F8F400D7F8F4301B681B6920
:102CE80023F44050D7F8F430D968D7F8F4301A688C
:102CF80040EA01031361D7F8F4309A68D7F8F43042
:102D08001B691A43D7F8F4305B691A43D7F8F430D3
:102D1800DB691343C7F8F830D7F8F4301B68DB6871
:102D280023F4164121F00C01D7F8F4301A68D7F8CB
:102D3800F8300B43D360D7F8F4301B685B6923F491
:102D48004070D7F8F4309969D7F8F4301A6840EA37
:102D580001035361D7F8F4301A688F4B9A4205D0B3
:102D6800D7F8F4301A688D4B9A4204D1FFF76CFDFE
:102D7800C7F8FC0003E0FFF753FDC7F8FC00D7F8DD
:102D8800F430DB69B3F5004F40F00C81D7F8FC3024
:102D98000022C7F8E830C7F8EC20D7E93A452246C0
:102DA8002B469118B9655B41FB65D7E91623214687
:102DB80012EB0108294643EB01094FF000024FF0DE
:102DC80000034FEAC90343EA58734FEAC802904622
:102DD8009946234618EB0303C7F8E0302B4649EB26
:102DE8000303C7F8E430D7F8F4305B680022C7F86B
:102DF800D830C7F8DC20D7E936120B46DB183B651C
:102E0800134642EB03037B65D7E91423D7E938015E
:102E1800FDF7E8F902460B46614BA3FB02235B0969
:102E28001C01D7F8FC300022C7F8D030C7F8D420EE
:102E3800D7E9348942464B469118B9645B41FB6433
:102E4800D7E91223414612EB010A494643EB010B2D
:102E58004FF000024FF000034FEACB0343EA5A73E6
:102E68004FEACA0292469B4643461AEB0303C7F849
:102E7800C8304B464BEB0303C7F8CC30D7F8F430D7
:102E88005B680022C7F8C030C7F8C420D7E9301201
:102E98000B46DB183B64134642EB03037B64D7E91C
:102EA8001023D7E93201FDF79DF902460B4611467A
:102EB8003B4BA3FB01235B09642202FB03F3CB1A00
:102EC800DB0003F13202364BA3FB02235B095B00F4
:102ED80003F4F8731C44D7F8FC300022C7F8B83064
:102EE800C7F8BC20D7E92E8942464B469118B963EA
:102EF8005B41FB63D7E90E234146511839634946C4
:102F08004B417B634FF000024FF00003D7E90CAB55
:102F18005946CB00514643EA51735146CA00104600
:102F28001946034642469B18C7F8B0304B460A4636
:102F380042EB0303C7F8B430D7F8F4305B680022DB
:102F4800C7F8A830C7F8AC20D7E92A120B46DB1817
:102F5800BB62134642EB0303FB62D7E90A23D7E9B6
:102F68002C01FDF73FF902460B460D4BA3FB02135C
:102F78005B09642101FB03F3D31ADB003233084AEF
:102F8800A2FB03235B0903F00702D7F8F4301B68A0
:102F980022449A6006E100BF00100140001401407D
:102FA8001F85EB51D7F8FC300022C7F8A030C7F8CE
:102FB800A420D7E9288942464B46911839625B41DB
:102FC8007B62D7E9082341465418494643EB01057B
:102FD8004FF000024FF00003EB0043EA5473E200A5
:102FE80014461D464346E318C7F898304B4645EB50
:102FF8000303C7F89C30D7F8F4305B680022C7F8A1
:103008009030C7F894204FF000024FF00003D7E942
:10301800244529468B00214643EA917321468A00BC
:10302800D7E92601FDF7DEF802460B46604BA3FB05
:1030380002235B091C01D7F8FC300022C7F888304E
:10304800C7F88C20D7E9228942464B469118B961C6
:103058005B41FB61D7E9062341465118396149466E
:103068004B417B614FF000024FF00003D7E904ABFE
:103078005946CB00514643EA51735146CA0010469F
:103088001946034642469B18C7F880304B460A4605
:1030980042EB0303C7F88430D7F8F4305B680022AA
:1030A800BB67FA674FF000024FF00003D7E91E89AB
:1030B80049468B00414643EA917341468A00D7E965
:1030C8002001FDF78FF802460B461146384BA3FB4B
:1030D80001235B09642202FB03F3CB1A1B01323381
:1030E800334AA2FB03235B0903F0F0031C44D7F81F
:1030F800FC3000223B677A67D7E91C8942464B4679
:103108009118B9605B41FB60D7E902234146511829
:10311800396049464B417B604FF000024FF0000395
:10312800D7E900AB5946CB00514643EA51735146A3
:10313800CA0010461946034642469B18BB664B46D2
:103148000A4642EB0303FB66D7F8F4305B680022BB
:103158003B667A664FF000024FF00003D7E9188902
:1031680049468B00414643EA917341468A00D7E9B4
:103178001A01FDF737F802460B460D4BA3FB021365
:103188005B09642101FB03F3D31A1B013233084A9C
:10319800A2FB03235B0903F00F02D7F8F4301B6886
:1031A80022449A6000BF07F58077BD46BDE8B08F1E
:1031B8001F85EB5102440346934200D1704703F840
:1031C800011BF9E710B50139034632B111F8014F77
:1031D80003F8014B013A002CF7D11A44002193421D
:1031E80000D110BD03F8011BF9E7000070B50D4DC3
:1031F8000D4C641BA4100026A64209D10B4D0C4CA3
:1032080000F020F8641BA4100026A64205D170BD6A
:1032180055F8043B98470136EEE755F8043B9847C4
:103228000136F2E7DC340008DC340008DC3400083E
:10323800E0340008034611F8012B03F8012B002A9B
:10324800F9D17047F8B500BFF8BC08BC9E46704776
:0C325800F8B500BFF8BC08BC9E467047EB
:1032640020000000436F6E6E65637465642073759F
:10327400636365737366756C6C79210000000000EC
:10328400000000005F000000000700070000147F3A
:10329400147F1400242A7F2A120023130864620076
:1032A400364955225000000503000000001C22414D
:1032B40000000041221C000014083E081400080805
:1032C4003E08080000503000000008080808080004
:1032D4000060600000002010080402003E514945CF
:1032E4003E0000427F4000004261514946002141B6
:1032F400454B31001814127F10002745454539000D
:103304003C4A4949300001710905030036494949DD
:103314003600064949291E000036360000000056D2
:103324003600000008142241000014141414140080
:103334000041221408000201510906003249794172
:103344003E007E1111117E007F49494936003E41FD
:10335400414122007F4141221C007F4949494100EB
:103364007F09090901003E4149497A007F0808089C
:103374007F0000417F4100002040413F01007F0861
:10338400142241007F40404040007F0204027F003D
:103394007F0408107F003E4141413E007F09090936
:1033A40006003E4151215E007F0919294600464925
:1033B4004949310001017F0101003F4040403F0085
:1033C4001F2040201F007F2018207F006314081452
:1033D4006300030478040300615149454300007FFE
:1033E400414100000204081020000041417F000018
:1033F4000402010204004040404040000001020475
:1034040000002054545478007F4844443800384421
:1034140044442000384444487F003854545418002D
:10342400087E090102000C5252523E007F08040437
:10343400780000447D4000002040443D00007F109F
:103444002844000000417F4000007C0418047800F8
:103454007C08040478003844444438007C14141470
:103464000800081414187C007C080404080048545C
:1034740054542000043F444020003C4040207C0041
:103484001C2040201C003C4030403C0044281028B4
:1034940044000C5050503C004464544C4400000818
:1034A4003641000000007F000000004136080000A3
:1034B40008082A1C080000000000000000000000AA
:1034C40001020304060708090000000001020304C6
:0834D400F4CCFF7F01000000B1
:0434DC00AD01000836
:0434E0008901000856
:0C34E4000024F4001000000001000000B3
:0400000508000FD907
:00000001FF
